:020000040200F8
:10000000600400222B350002093400023935000259
:100010003935000239350002393500023935000220
:100020000000000000000000000000003935000260
:100030003935000200000000393500023935000270
:10004000B5160002B3170002B51800025B1F0002CC
:0C005000452100028F2200029B230002C9
:10005C001000000000000000017A5200017C0E012B
:08006C001B0C0D000000000058
:10008000010100000000000000000000000000006E
:10009000000008A0000000000000000000000000B8
:1000A000000010A800000000000000000000000098
:1000B000F0B503AF2DE9000F83B000EB400040F234
:1000C0009043C2F20023154603EBC0088946D8F8D6
:1000D0002C0002281AD001280CD048B9444654F804
:1000E000246F6068F143B04275D90844A84279D2C0
:1000F00000269BE0C2465AF8244FDAF80410A142C9
:100100003FD9E0430144D8F820003FE058F824AF3D
:1001100008F10400A8F1040B00260290A8F10800E1
:10012000019024E0DBF8001010440844A1EB0A0120
:10013000884250EA31804946A84250EA3584019805
:1001400022460068504404F0D1F804EB0A00DBF8C2
:100150000010411AA5EB040550EA118A2644A14477
:10016000002DBFF35F8F4046C8F800A05ED0029814
:100170006FEA0A0200685045D4D91044DBF8001039
:10018000D4E7E243D8F8200011440144A94251EADF
:100190003586051B58F81C0F2044AE4209D249464B
:1001A000324604F0A3F8BFF35F8F3019CAF800009D
:1001B0003CE049462A46444604F098F8A6EB050878
:1001C000206809EB0501424604F090F8BFF35F8F09
:1001D000CAF800802AE0D8F8202008441044A84239
:1001E000FFF486AF58F81C0FD8F804103044A1EB88
:1001F000060A554508D249462A4604F077F8BFF367
:100200005F8F7019206010E049465246464604F060
:100210006DF8A5EB0A08306809EB0A01424604F0C4
:1002200065F8BFF35F8FC4F800802E46304603B0F8
:10023000BDE8000FF0BDF0B503AF4DF8048D40F2FE
:1002400090450C46C2F200252B78532B38D08046BF
:10025000A8212846164604F045F803202861686165
:1002600040F2385044F68C01C2F20020C0F2002166
:10027000A961E8614FF4006028620020A86268620A
:10028000E862296640F638514FF0100EC2F20021A4
:100290006966C5F868E02867E8666867BFF35F8F3E
:1002A00044F20E31C0F2002180F00F0201308A5C6E
:1002B00005F8012B0FF009C032464046BFF35F8FAF
:1002C000EFF311854FF0200181F311882146FFF7EC
:1002D000EFFE85F311885DF8048BF0BDF0B503AF38
:1002E0002DE9000F9BB090460C4606A94FF0000B7D
:1002F00004901A900020169140211791CDE918BB67
:100300000EE0011DC8F800100168CDE9003916A8FB
:10031000534600F027FA1998B0F1FF3F40F31E82D0
:1003200014F8011B25291CD0002900F00982DDE901
:100330001720431C934207D8169A11541893199802
:10034000179A0130199018469042E4D116991A98DC
:10035000FFF771FF1899884240F0EF81CDF860B047
:10036000D9E74FF000092178A1F123030D2B13D811
:100370000222DFE803F00B111111111111110D11FF
:100380000F11110749EA02090134ECE70822F9E7E5
:100390000422F7E70122F5E7A1F13A02002312F166
:1003A0000A0F0ED30A4614F8011F03EB8303A1F1D1
:1003B0003A0602EB430216F10B0FA2F130030A4694
:1003C000F1D82E290ED1224612F8015F2A2D0DD127
:1003D000D8F8001002340A1DC8F80020D1F800A097
:1003E00001211EE000214FF0000A1AE0A5F13A06B3
:1003F00016F10A0F03D200214FF0000A10E04FF06F
:10040000000A12F8011F0AEB8A06A1F13A0405EB73
:10041000460614F10B0FA6F1300A0D46F1D8012162
:10042000144614F8012B02F0FB06682EF9D0A2F155
:100430005806202E26D8DFE806F0121111111111EE
:100440001111111111163C1111111111111111116C
:1004500011117111117E1138111112005BE7D8F8DA
:10046000000010224DE7DDE91720411CD8F80030CC
:10047000914203F10406C8F800603FF665AF169A92
:100480001B680AE0252A7FF446AFDDE91720411CEE
:1004900091423FF659AF169A252313541891199893
:1004A000179A0130199008464EE7D8F800000A2242
:1004B00027E7D8F800104CF6CD4C0A1DC8F80020EC
:1004C000D1F800E0CCF6CC4CBEF1000FCEF100012B
:1004D000724648BF0A4603910A2A4FF0010107DB22
:1004E000A2FB0C56632A01F101014FEAD602F7D8AC
:1004F000514551EA8A8C0026002BCDF814E056D0E5
:10050000BEF1000F5FEA5F9109F0040241EA920137
:10051000A3EB010B5FEA89754ED475E0D8F80000B3
:100520001022011DC8F80010016808200823CDE939
:10053000000B16A8EDE6D8F80020131DC8F800300F
:10054000126844F22243002AC0F2002352EA1385C3
:100550005FEA018908E01998CDF860B0B0F1FF3F7B
:10056000AAF1010A7FF7D7AE15F8011BBAF1000F07
:100570005FEA198200293FF4CEAE002A7FF4CBAEA9
:10058000DDE917235E1C964207D81698C1543346FE
:100590001998179A0130189619909342DED116993E
:1005A0001A98FFF748FE18998842D4D0C5E04FF05A
:1005B000000B5FEA897527D5BAF1000F24D1002816
:1005C00000F1B8800599B1F1FF3F4FDD5FEA497155
:1005D00074D5DDE917214B1C934208D816982B22BD
:1005E000425419461998179A01301893199091425C
:1005F0005BD116991A9802956546FFF71CFE18996B
:10060000884205994CD098E05FEAC971D7D1BBF117
:10061000000FD4D0029504E000260028AB4600F17C
:100620008980ABF101055D4538BFDC4540D2DDE98D
:1006300017214B1C934208D8169820224254194681
:100640001998179A0130189319904FF0000B9142A6
:10065000E2D116991A986646FFF7EDFD189988427F
:100660006BD11998B446CDF860B0D5E7DDE9172114
:100670004B1C934208D816982D22425419461998BB
:10068000179A013018931990914213D116991A981C
:1006900002956546FFF7CFFD1899884203994CD122
:1006A0001998AC46029D18960591002806D541E0A0
:1006B000029D84E70399059100283BD4002D0AD4BC
:1006C0000A2216A805995346CDE900B900F04AF868
:1006D0004FF0000B1FE609F0010151EA0A01EFD1CA
:1006E000BBF1000FECD0ABF101055D4538BFDC4537
:1006F000E6D2DDE917214B1C934208D81698302228
:10070000425419461998179A0130189319904FF0CE
:10071000000B91420BD116991A986646FFF78BFD94
:100720001899884209D11998B446CDF860B00028CC
:10073000AB46D8D54FF0000BEDE54FF0FF300DE0A4
:1007400040B1189A42B106A90498FFF774FDDDE99B
:10075000181002E0002001E0002108441BB0BDE8B1
:10076000000FF0BDF0B503AF2DE9000F81B01546C5
:10077000884691421E460446D7F808A04FF0010073
:1007800005D34146B1FBF5F10130A942FAD2B0429E
:1007900050EA8689BAF1000FF96835D011F00100EE
:1007A00032D188074FF020014FF0200048BF3020A1
:1007B000002E50EA018B03E0E068B0F1FF3F23DD3B
:1007C000BAF1000F20D0D1451ED2D4E90120411C3E
:1007D000914208D8226802F800B0A160E06862681F
:1007E0000130E06008469042AAF1010AE4D1216894
:1007F0002069FFF720FDA168884202D10020A06097
:10080000DAE74FF0FF30E060E06800283ED44FF0B8
:10081000010B02E0013E0BFB05FB022EFAD2B8FBF6
:10082000FBF1A942F7D2A2686168531CB8FBFBF642
:100830008B420CD844F661412068C0F20021895DEA
:1008400081541A46E06861680130A360E0608A4222
:1008500009D121682069FFF7EEFCA26890420CD113
:100860000022E068A26000280AD4BBFBF5F106FB79
:100870001B88AB458B46D7D202E04FF0FF30E060DB
:10088000F968C90718BFBAF1000F03D101B0BDE87C
:10089000000FF0BD2025AAF10106564538BFD1450D
:1008A000F4D26168531C8B4207D8206885541A46DD
:1008B000E06861680130A360E0608A4209D1216884
:1008C0002069FFF7B8FCA168884207D10022E068E0
:1008D000A260B0F1FF3FB246DDDCD7E74FF0FF305A
:1008E000E060D3E782B080B56F4682B0C7E90223EB
:1008F00007F10802019201AAFFF7F0FC02B0BDE87F
:10090000804002B07047F0B503AF2DE9000784B016
:1009100032204FF47A7102F032FD42F2545440F228
:100920000C51C2F2002401222046012501F039F8C1
:1009300040F20B510122204601F033F80A204FF417
:100940007A7102F01CFD42F25C5044F69041C2F212
:100950000020C0F2002101F014F9A0B144F2C4411A
:100960000446C0F200210020FFF7BCFF44F25851BA
:1009700044F2A85244F2F433C0F20021C0F2002243
:10098000C0F200236EE042F25C5440F6FB41C2F23A
:100990000024C0F2002100220023204601F041F98A
:1009A000FD2007F81A0CA7F11A01022200232046A5
:1009B00007F8195C01F02FF968B144F2585144F27C
:1009C000A85244F2BB330446C0F20021C0F2002218
:1009D000C0F2002346E028204FF47A7102F0CFFCE9
:1009E000232007F81A0C082007F8190C42F25C5073
:1009F000A7F11A01C2F200200222002301F00BF934
:100A000068B144F2585144F2A85244F28833044683
:100A1000C0F20021C0F20022C0F2002322E019201F
:100A20004FF47A7102F0ABFC222007F81A0C0B206D
:100A300007F8190C42F25C50A7F11A01C2F200202B
:100A40000222002301F0E7F8A8B144F2585144F221
:100A5000A85244F2C7430446C0F20021C0F200226B
:100A6000C0F2002300200094FFF73CFF204604B0B2
:100A7000BDE80007F0BD44F67A4042F25C58C0F28F
:100A800000200426451CC2F20028A7F11A0915F817
:100A9000010C297807F81A0C07F8191C0222002308
:100AA0004046494601F0B7F810BB013E05F102058A
:100AB000EDD1282007F81A0C812007F8190C42F212
:100AC0005C50A7F11A01C2F200200222002301F0BB
:100AD000A2F800B344F2585144F2A85244F27453BD
:100AE0000446C0F20021C0F20022C0F20023B9E7A0
:100AF00017F81A6C44F2585144F2A85244F21E53AB
:100B00000446C0F20021C0F20022C0F200230020FF
:100B1000CDE90064A8E7292007F81A0CC82007F8D7
:100B2000190C42F25C50A7F11A01C2F20020022215
:100B3000002301F070F868B144F2585144F2A85211
:100B400044F646330446C0F20021C0F20022C0F24F
:100B5000002387E72A2007F81A0C322007F8190C1F
:100B600042F25C50A7F11A01C2F2002002220023D7
:100B700001F051F868B144F2585144F2A85244F2DD
:100B8000D9530446C0F20021C0F20022C0F2002373
:100B900068E7472007F81A0CA12007F8190C42F261
:100BA0005C50A7F11A01C2F200200222002301F0DA
:100BB00032F868B144F2585144F2A85244F67733FF
:100BC0000446C0F20021C0F20022C0F2002349E72F
:100BD00044F6824842F25C5900200125C0F2002808
:100BE0004FF0080AC2F20029A7F11A0618F81000FF
:100BF000022207F81A0C00234846314607F819ACC0
:100C000001F009F820BBE8074FF000054FF00100A4
:100C1000ECD14A2007F81A0C302007F8190C42F2E0
:100C20005C50A7F11A01C2F200200222002300F05A
:100C3000F2FFE8B144F2585144F2A85244F61213BC
:100C40000446C0F20021C0F20022C0F2002309E7EE
:100C500017F81A6C44F2585144F2A85244F229434E
:100C60000446C0F20021C0F20022C0F200234EE789
:100C70006D2007F81A0C802007F8190C42F25C501E
:100C8000A7F11A01C2F200200222002300F0C3FFE4
:100C900068B144F2585144F2A85244F6163304465F
:100CA000C0F20021C0F20022C0F20023DAE6512097
:100CB00007F81A0CD92007F8190C42F25C50A7F17A
:100CC0001A01C2F200200222002300F0A4FF68B142
:100CD00044F2585144F2A85244F6D7030446C0F2F5
:100CE0000021C0F20022C0F20023BBE6FA204FF43C
:100CF0007A7102F044FB0024B8E67047D0B502AF29
:100D0000FFF701FE42F2CC5044F64851C2F20020F7
:100D1000C0F2002100F0D3FA44F20A610446C0F2A6
:100D200000210020FFF7DEFD44F695010020C0F20F
:100D30000021FFF7D7FDBCB144F2585144F6081228
:100D400044F2AB43C0F20021C0F20022C0F2002303
:100D50000020FFF7C7FD44F2FE410020C0F2002151
:100D60002246FFF7BFFD00BEBDE8D04000F00DB841
:100D7000022818BF704742F2545045F29C01C2F25B
:100D80000020C0F2002100F000BE80B56F4684B0A4
:100D9000002003904FF6FF70029003A802F0E9FADA
:100DA0009DF80F3044F6401144F2C0429DF80D60AA
:100DB0009DF80E50C0F20021C0F200220020CDE9C3
:100DC0000056FFF78FFD44F20C610020C0F20021B5
:100DD000FFF788FD42F29C5044F6F441C2F2002035
:100DE000C0F2002101F0B4FB78B344F2585144F64C
:100DF000CE3244F6AB030446C0F20021C0F200221A
:100E0000C0F200230020FFF76DFD42F2CC50C2F289
:100E1000002000F0E6FB70B144F2585144F6A832CD
:100E200044F6B333C0F20021C0F20022C0F2002326
:100E30000020FFF757FD44F2FE410020C0F20021E0
:100E40002246FFF74FFD00BE0DE044F20A6100208C
:100E5000C0F20021FFF746FD44F2BC510020C0F271
:100E60000021FFF73FFD42F29C50C2F2002001F04A
:100E7000E7FC002845D044F2585144F6CE3244F203
:100E80001F330446C0F20021C0F20022C0F200234A
:100E90000020FFF727FD42F2CC50C2F2002000F004
:100EA000A0FB70B144F2585144F6A83244F6B33373
:100EB000C0F20021C0F20022C0F200230020FFF7A0
:100EC00011FD42F29C50C2F2002001F0BEFC70B154
:100ED00044F2585144F6CC0244F67103C0F20021AA
:100EE000C0F20022C0F200230020FFF7FBFC44F216
:100EF000FE410020C0F200212246FFF7F3FC00BEB5
:100F00000DE044F20A610020C0F20021FFF7EAFC84
:100F100044F25F410020C0F20021FFF7E3FC40F6FD
:100F20004954C2F20024207800F0B2F8207800285A
:100F30005FEA1F9000F0ACF840F2210640F2200476
:100F400040F64C5A44F2493942F24C5B45F6294589
:100F500045F62848C2F20026C2F20024C2F2002A56
:100F6000C0F20029C2F2002BCCF28F25C0F28F28EC
:100F7000307828B10020307000F028F900E000BF80
:100F800020780228FBD14FF6FF700290207828B11C
:100F900002980138029001D000BFF7E70298D8BB51
:100FA00044F279410020C0F20021FFF79BFC42F29D
:100FB000CC50C2F2002000F014FB70B144F2585142
:100FC00044F6A83244F6B3330020C0F20021C0F248
:100FD0000022C0F20023FFF785FC42F29C50C2F2CF
:100FE000002001F032FC70B144F2585144F6CC02BA
:100FF00044F671030020C0F20021C0F20022C0F2CA
:101000000023FFF76FFC44F2FE4100201422C0F2DF
:101010000021FFF767FC00BE40F6495041F24C51F9
:10102000C2F20020C2F200214FF480620078002852
:101030005FEA1F9001EBC020514602F0E5FB00285B
:1010400044F60C40C0F2002050EA09810020FFF76E
:1010500049FCDBF800000130CBF8000000FB05F193
:101060004FEAB10141453FF683AF44F2C44100204D
:10107000C0F20021FFF736FC9AF800209AF8013000
:1010800044F660010020C0F20021FFF72BFC6FE75F
:10109000F0B503AF4DF804BD2DED068B4EF22002E6
:1010A000C4F201021168938841EA030203F00F03BE
:1010B000120701F00F0207D442F27861C2F2002158
:1010C00009689940D1401BE003F00706032542F26E
:1010D000786C05FA06F6C2F2002C0124082B38BF02
:1010E00004FA03F601F00703090705FA03F3DCF835
:1010F000005005FB06F158BF04FA02F3B1FBF3F10F
:1011000044F6F44242F25056C0F200224FF4007509
:101110009FED1D9BC2F2002652689FED1DAAB1FBF8
:10112000F2F1890900EE101A41F24C51B8EE408BF1
:10113000C2F2002101EBC020841C306800EE100ACE
:10114000B8EE400B0130306020EE090B80EE080B4A
:10115000B7EEC00B02F088FB20EE0A0A013DBDEE9F
:10116000C00A10EE100A24F8020C24F8040BE4D193
:1011700040F648500121C2F200200170BDEC068B00
:101180005DF804BBF0BD00BF3B43D5598CA2B34012
:1011900000FEFF4630B140F220010079C2F200218A
:1011A000087001E004200078012888BF704740F6ED
:1011B0004850C2F20020007808B100F007B840F2B1
:1011C00021000121C2F2002001707047B0B502AFCA
:1011D00040F64C544FF40061C2F20024204603F064
:1011E00081F840F6495541F24C51C2F20025C2F255
:1011F00000214FF400632246287801EBC02142F21F
:10120000CC50C2F2002000F07CF9002845D044F216
:10121000585144F64F4244F6D8330446C0F20021F8
:10122000C0F20022C0F200230020FFF75BFB42F275
:10123000CC50C2F2002000F0D4F970B144F2585101
:1012400044F6A83244F6B333C0F20021C0F20022C3
:10125000C0F200230020FFF745FB42F29C50C2F28F
:10126000002001F0F2FA70B144F2585144F6CC0279
:1012700044F67103C0F20021C0F20022C0F2002344
:101280000020FFF72FFB44F2FE410020C0F20021B6
:101290002246FFF727FB00BEB0BD287800210028BA
:1012A0005FEA1F90287040F64850C2F2002001709B
:1012B000B0BD80B56F46FFF721FD002080BDF0B5C1
:1012C00003AF2DE900070E790D4680460968002E10
:1012D0005FEA0F904DF20002012E18BF4600A86889
:1012E000C4F2250202EB012A4FEA067980B1406878
:1012F0000AF1180102240068816049F00841016088
:10130000AA685168106892680B68DC81126890477F
:10131000E86890B140680AF11C010224006841604D
:1013200049F0004141F4C0110160EA685168106859
:1013300092680B68DC811268904795F921304EF273
:10134000001CCEF2000CAA7F03EB0C0188F81C6095
:1013500003F00F064EF6145401F54070C8E9015A27
:10136000CEF20004002B48BF3019160142F254623D
:101370004CF20031C2F20022C4F20001067042F8C1
:10138000238003F01F0451F8230020F4803041F83B
:10139000230051F8230058090123BFF35F8F0CEBA2
:1013A000800603FA04F4C6F880414CF8204095F911
:1013B0002060002E1ED4F0B22E7F0CEB000436010C
:1013C00084F8006342F8208051F8206026F48036CB
:1013D00041F8206051F82060C0F3421600F01F0071
:1013E000BFF35F8F0CEB860403FA00F0C4F88001B2
:1013F0004CF8260095F91F30002B1FD4D8B26B7F14
:101400000CEB00061B0186F8003342F8208051F8EF
:101410002020012322F4803241F8202051F82010AE
:10142000C0F3421100F01F00BFF35F8F0CEB81028D
:1014300003FA00F0C2F880014CF821006879E979DC
:101440002A790004CE0740EA8130931E40EAC24464
:10145000042B38BF04F5007401294FF000000DD1B2
:10146000A969AB794A780978002B5FEA1F931201CA
:1014700042EA81714FEA03290C4301E04FF0000971
:10148000D5E90412C8E90810C8F828200120EFF3B4
:10149000108580F31088D8F804100968C1F108019C
:1014A000884043F20801C4F220010A6822EA0000E1
:1014B000086008689620012101F061FF85F310881B
:1014C00046F48031D8F808000460D8F808000161BB
:1014D000D8F808000661D8F808000169B142FCD1CB
:1014E00040F601714162D8F8081045F24932C0F265
:1014F00053020020C1F82090C8F80020BDE8000782
:10150000F0BDF0B503AF2DE9000B45680446007F40
:101510009946AE68904623FA00F256B1B368306837
:101520009E68C2F34F030022B04720B1BDE8000B14
:10153000F0BD134605E0207F65680023002129FAED
:1015400000F2ED68C4E90313BDB14FF0FF3101EBC8
:10155000520149B1AA6828688BB2002196684246B8
:10156000B0470028E2D1207F6FF00101022201FA8A
:1015700000F008EB090101EB0008A168C4E905824D
:10158000486882000ED4400110D4086800F00302BD
:10159000032A22D012B94A6892010BD40820BDE870
:1015A000000BF0BD0D20BDE8000BF0BD0C20BDE828
:1015B000000BF0BD0A6942F003030B61A1680A61E8
:1015C000A1680B699342FCD142F00C020A61A16848
:1015D00040F0105040F0030008600020BDE8000B10
:1015E000F0BDB0B502AF0446806800210122216041
:1015F0000160A0680161606890F921104EF28010CE
:10160000CEF200004B0901F01F0102FA01F140F88F
:101610002310BFF34F8FBFF36F8F616891F92030B4
:10162000002B0DD4D9B2C1F3421301F01F0102FA0D
:1016300001F140F82310BFF34F8FBFF36F8F616844
:1016400091F91F20002A0ED4D1B20123C1F3421216
:1016500001F01F0103FA01F140F82210BFF34F8F90
:10166000BFF36F8F6168C86820B181680068096A3C
:1016700088476168886818B181680068096A884786
:101680000120EFF3108580F3108843F208026168AF
:10169000C4F2200209681368C1F1080188400121E1
:1016A000184310601068962001F069FE85F31088D9
:1016B0000020B0BDD0B502AF82B0EFF303804FF091
:1016C000704101EB006042F254614CF2003280152F
:1016D000C2F20021C4F200020C58815821F480317A
:1016E00081508058D4E9030200283FD0A16849699D
:1016F000C1F30561C1F12003217F9A4252EA33828E
:1017000002290AD1022142F021C8A16850F8043B05
:101710008B610FF007C0217FE06801290AD1012108
:1017200042F015C0A16830F8023B0B830FF007C0F0
:10173000217FE06852B149B942F001E0A16810F898
:10174000013B0B760FF007C0217FE06802FA01F33E
:101750002169891A1844C4E9030122B1A0684169CA
:1017600001214161216921B102B0D0BD002AFBD124
:1017700001E00020E060A068406900F07C50B0F11A
:10178000805FF1D9606A20B1D0E90012CDE9001282
:1017900000E0684601210171216AA26A026088475F
:1017A000606A00281CBFDDE90012C0E9001202B027
:1017B000D0BDD0B502AF82B0EFF303804FF07041DF
:1017C00001EB006042F254614CF200328015C2F22B
:1017D0000021C4F200020C58815821F4803181505C
:1017E0008058606930B1204600F01BF8A06908B14C
:1017F00002B0D0BD606A20B1D0E90012CDE900127C
:1018000000E0684602210171216AA26A02608847ED
:10181000606A00281CBFDDE90012C0E9001202B0B6
:10182000D0BD80B56F4682685169037FC1F3052C36
:101830008169614551EA3C8CCBB1012B0CD0022B64
:1018400020D102234CF01FC04169D36941F8043B09
:1018500002230FF007C015E001234CF013C84169C3
:10186000938B21F8023B01230FF007C00AE000230D
:101870004CF009C041698268127F01F8012B0FF01A
:1018800007C0037F0CFA03F2D0E90531A1EB0C018C
:10189000BCF1000F1A44C0E9052105D081684A69EE
:1018A0004FF480324A618169002918BF80BD002150
:1018B000416180BDB0B502AF82B0EFF303804FF05D
:1018C000704101EB006042F254628115C2F20022C5
:1018D00005165458A1684A6890014FF0000048600E
:1018E0002CD4606910B12046FFF79BFFA0684FF62B
:1018F000FC72CCF2FF120168114001F1007101602D
:10190000A068016921F00C0101616068C16821B122
:101910008A680868116988476068816821B18A68A7
:101920000868116988476068C079A168C0070861C4
:101930000020C4E90300C4E9050018E0A0680168BC
:1019400021F000710160606A20B1D0E90012CDE998
:10195000001200E0684600210171216AA26A02605B
:101960008847606A18B1DDE90012C0E900124CF244
:101970000030C4F2000050F8251021F4803140F806
:10198000251050F8250002B0B0BD80B56F4645F275
:101990005422C5F24F020260084600F01CF80020F5
:1019A00080BDD0B502AFCBB2012098406FF0010EE0
:1019B00084B20EEAD110002A40F208024FEA001168
:1019C000C4F240024FF000004FF4803C08BF0CFA14
:1019D00003F45450D0BDF0B503AF4DF804BD044638
:1019E00000F060F842F2506CEFF31081C2F2002C6C
:1019F000012080F31088DCF8000038B940F614505C
:101A00000022C4F24000027040220270DCF80000A4
:101A10000130CCF8000081F31088208828B340F60C
:101A2000000E0021C4F2400E07E00EEB80100131E1
:101A300040F822302088814217D2606800EBC10252
:101A400050F831309288D8034FEA1220D2B2ECD548
:101A50000EEB801555F8226026F4803645F822609A
:101A600023F4803645F82260DFE70120EFF3108190
:101A700080F31088DCF8000020B1DCF800000138A9
:101A8000CCF80000DCF8000038B940F61450002211
:101A9000C4F2400002708022027081F310885DF869
:101AA00004BBF0BDF0B503AF2DE9000F81B00446D3
:101AB0000088002861D04EF64C4B0025C4F2010B83
:101AC00003E020880135854257D245F2B60942F23B
:101AD00040080026C0F20029C4F220080AE088F875
:101AE0000000C820012101F04AFC013608F102087B
:101AF000032EE6D0606839F8022B00EBC501898817
:101B00009142F2D150F835009BF80010012200F00C
:101B1000B85002FA06FAB0F1807F0AEA010015D146
:101B200058B9012001F0DAFC9BF8000040EA0A00F5
:101B30008BF80000012001F0A7FC98F900000028B4
:101B4000D3D498F8000040F08000C8E758B10120D5
:101B500001F0C4FC9BF8000020EA0A008BF80000AA
:101B6000012001F091FC98F90000B0F1FF3FBCDCCE
:101B700098F8000000F07F00B1E701B0BDE8000F69
:101B8000F0BDF0B503AF4DF8048D0D46097804465D
:101B90004EF20000C4F22500002600EB0120206177
:101BA000A8686060287B25602072E8696063286A05
:101BB000E063A6630120EFF3108880F31088297892
:101BC000C1F10901884043F20401C4F220010A680E
:101BD00022EA0000086008689620012101F0CFFB8E
:101BE00088F310882046294600F021F844F6431176
:101BF000C4E90566C5F249210020C4E9076684F8F6
:101C0000296084F82A6084F82B6084F82C60E160F5
:101C10005DF8048BF0BD9C46002380F82AC000F0DC
:101C2000F1B8844641630020CCE90E327047F0B52C
:101C300003AF2DE9000F02691F23082677251370D3
:101C40005F2302694EF2001ECEF2000E4EF6185CC3
:101C50001370DF2302690EF5407A42F25468CEF227
:101C6000000C1370C2F20028026803690EF5C07BF5
:101C70004FF00109526A127942F0E0021A740268C8
:101C80000369526AD27842F0E0025A74026803692A
:101C9000526A927862F306169E7002680669526A6A
:101CA00013785278012B5FEA1F9343EA420242F015
:101CB0000402F270026844F240260369C0F20F0683
:101CC0005268B24208BF6FF008055D7100230269D7
:101CD0009371B3230269D37191F911604B7B06F0C4
:101CE0000F020AEB06051B01141F002E48BF04EB70
:101CF0000C052B704CF20033C4F2000348F82600A8
:101D0000740953F8265025F4803543F8265053F8CB
:101D1000265006F01F0609FA06F6BFF35F8F4BF850
:101D200024604EF8246091F90F404A7B04F00F06BE
:101D30000AEB0405043E002C48BF06EB0C0512011B
:101D40002A7048F8240053F8242022F4803243F803
:101D5000242053F82420620904F01F04BFF35F8F8E
:101D600009FA04F44BF822404EF8224091F9102071
:101D70004D7B02F00F040AEB0206043C002A48BF28
:101D800004EB0C062C01347048F8220053F8224072
:101D900024F4803443F8224053F82240540902F0DE
:101DA0001F02BFF35F8F09FA02F24BF824204EF8AE
:101DB000242091F90E20497B02F00F040AEB020562
:101DC000043C002A48BF04EB0C050901297048F8BF
:101DD000220053F8221021F4803143F8221053F8E6
:101DE0002210510902F01F02BFF35F8F09FA02F2BD
:101DF0004BF821204EF821209F2100690170BDE899
:101E0000000FF0BD90F808C0C0E90512BCF1010F49
:101E10000BD190F804C0002180F8251043EA4C0152
:101E200080F82410012180F82610D0B502AF81B0CF
:101E3000002B5FEA0F9180F829104EF22001C4F2C6
:101E4000010109680091009901F00F210091DDF86E
:101E500000E0DDF800C001690B7C90F82C40002CFC
:101E60005FD00021C0E9072190F8262080F82810D3
:101E700080F8272080F82B1080F82D1080F82E1085
:101E800080F82F1080F830100168496A0A784B7882
:101E900091F805C08C79012A5FEA1F9242EA430259
:101EA000036942EA0C1242EAC41242F00402DA70F8
:101EB0000269137943F0100313710269137903F077
:101EC000F70313710269137903F0EF0313710269C9
:101ED000C979137903F07F0343EAC11111710169D4
:101EE0004A7942F001024A71016891F90F10002904
:101EF0000DD4C9B21C2301F01F0203EAD101012352
:101F000003FA02F24EF20013CEF20003CA50016946
:101F1000BF22CA7190F82C10A9B1002180F82C10B2
:101F200014E0CEF30322A2EB1C6203FA02F2042AAD
:101F300006D3920891F90130002B0AD5013AF9D164
:101F4000082001B0D0BD006902214170002001B01D
:101F5000D0BDB322CA71826983E7D0B502AF82B027
:101F6000EFF303804FF0704101EB00604CF2003260
:101F70008015C4F20002835823F4803383508058C4
:101F8000EFF3038001EB006042F254618015C2F26E
:101F900000210C5894F82D0078B1E069002800F079
:101FA000C8802168496AC97900293FD0A06B58B31D
:101FB000D0E90012CDE9001227E0A069022804D878
:101FC0002069017941F040010171E06901280ED1D9
:101FD0002069017941F0100101712069017941F016
:101FE000080101712069017901F0EF010171206898
:101FF000406AC07900287CD0A06B002868D0D0E966
:102000000012CDE9001264E06846616BE26B026089
:10201000052202718847A06B00281CBFDDE9001271
:10202000C0E90012002084F82B00E069012819D0D3
:10203000022807D003286FD12069017941F04001BF
:10204000017169E02069017941F010010171206995
:10205000017941F0080101712069017901F0EF0176
:10206000017159E094F82A0000284DD020684EF202
:102070008013CEF2000390F90F00420900F01F0117
:10208000012000FA01F143F82210BFF34F8FBFF394
:102090006F8F2169CA7942F08002CA7121690A7979
:1020A00042F010020A7121690A7902F0F7020A71FE
:1020B00021690A7902F0EF020A71216904224A704B
:1020C00021694A7902F0FE024A7184F82C0023E06B
:1020D0006846616BE26B0260052202718847A06B63
:1020E00000281CBFDDE90012C0E90012002084F8BE
:1020F0002B002069C07C8DF800009DF800000120B5
:1021000084F82D0002B0D0BD2069417A01F0F701BA
:102110004172206908214170D4E90401C07C226A1F
:102120008854D4E90701013801F10101C4E907012C
:1021300001D002B0D0BD2069017901F0BF01017169
:1021400002B0D0BDB0B502AF82B0EFF303804FF064
:10215000704101EB00604CF200358015C4F20005BF
:10216000425922F4803242514059EFF3038001EB8F
:10217000006042F254618015C2F200210C5894F8BC
:102180002700D0B194F82600032806D194F828003F
:10219000022802D194F8300090B1206994F82410FC
:1021A000817494F8280094F82710013084F82800EE
:1021B000481E84F8270002B0B0BD94F8290008B189
:1021C00002B0B0BD2068406AC079E0B194F82B003D
:1021D000C8B9206AB8B1A06B20B1D0E90012CDE92E
:1021E000001200E06846616BE26B0260052202713A
:1021F0008847A06B00281CBFDDE90012C0E900126F
:10220000002084F82B00E06960B1D4E90401226A5F
:10221000895C8174D4E90701013801F10101C4E945
:102220000701CDD12069C17901F07F01C171206919
:102230006FF0BE0190F90720B2F1FF3F03DC0029E7
:1022400001F10101F6D1206890F9100055F8201035
:1022500021F4803145F8201055F82000206890F9CD
:10226000100000280CD4C0B21C214EF2802300F0D4
:102270001F0201EAD000CEF2000301219140C150BB
:102280002069C17941F04001C17102B0B0BDD0B543
:1022900002AF82B0EFF303804FF0704101EB0060BA
:1022A00042F254618015C2F200210C582068406A45
:1022B000C079B8B1A06B20B1D0E90012CDE900120D
:1022C00000E06846616BE26B02600522027188479C
:1022D000A06B00281CBFDDE90012C0E9001200203D
:1022E00084F82B0094F8290030B194F827000128D5
:1022F00002D194F8300078B3E06968BB94F82A0002
:1023000010B320684EF28013CEF20003012290F940
:102310000F0000F01F01400902FA01F143F82010FC
:10232000BFF34F8FBFF36F8F2069C17941F08001F8
:10233000C1712069042141702069417901F0FE01D9
:10234000417184F82C2007E02069417A01F0F701FF
:1023500041722069082141702069C17901F0BF01F3
:10236000C17120696FF0BE01C279520603D5002900
:1023700001F10101F8D1EFF303804FF0704101EB5F
:1023800000604CF200318015C4F20001425822F482
:1023900080324250405802B0D0BDF0B503AF4DF886
:1023A00004BD82B0EFF303804FF0704101EB006099
:1023B00042F254618015C2F200210C5821694A7A18
:1023C0004B7A02F01F0002F003020F2803F0E00333
:1023D0004B7201D83AB939E021694B785B0658BF96
:1023E00042F001027AB3012584F82B5020690026BF
:1023F000C67120462168FFF71AFC94F82600A169EF
:1024000084F828002069C4E90761B32184F82C60AE
:1024100084F82A60C171A06B20B1D0E90012CDE927
:10242000001200E06846616BE26B0260057188474C
:10243000A06B00281CBFDDE90012C0E900120020DB
:1024400084F82B0069E04A78520629D4010715D494
:1024500094F82C10002918BF10F0040138D140075F
:102460005BD52068406AC079002856D0A06B002850
:1024700067D0D0E90012CDE9001263E0254615F8D7
:102480002B0F58B3A1690020C4E9070194F8261066
:1024900084F82810012184F82C0084F82A0023E015
:1024A000012084F82B000820487020682369406AC6
:1024B00041790278807942EA011141EAC01040F086
:1024C0000200D8702069417941F00101417124E096
:1024D000254615F82B0F08B1012108E094F82900D2
:1024E0000221002851EA11912069B322C271A06B28
:1024F00020B1D0E90023CDE9002300E06846626BFB
:10250000E36B036001719047A06B00281CBFDDE9FD
:102510000012C0E9001200202870EFF303804FF092
:10252000704101EB00604CF200318015C4F20001F3
:10253000425822F480324250405802B05DF804BB49
:10254000F0BD6846616BE26B0260042202716EE7C7
:10255000F0B503AF2DE9000F81B00D46097C0446AC
:1025600044F2020A0D295FEA9F90207401202A7C20
:1025700000FA01F1E16042F20001C4F23201C4F25A
:10258000320A01EB0221A160696965606161A96994
:10259000E1614FF00008C4F81880D5F81CB04AF883
:1025A000F20CEFF3108680F310884FF00049287C7E
:1025B0006FF00062011F29FA00F0062943F21001B2
:1025C000C4F2200152EA30A00A681040086008688E
:1025D0009620012100F0D3FE86F31088207B0007AF
:1025E0000DD00120EFF3108180F31088A089BAF894
:1025F000002022EA0000AAF8000081F31088A068F9
:102600004FF425410160A068C0F82C80A068C0F894
:102610003C80A068C0F84880287A2978A268C00564
:102620000329696808BF00F58030D0620139A068CD
:10263000C0F81090A068C0F81490A068C0F8189076
:10264000A068C0F82480A068C0F82880A068DBF8E3
:102650001820C261A068DBF81C200262A0688166B5
:10266000A06841662978DBF83800012906D041B915
:1026700069684FF0FF3202EB510137E04FF0FF3154
:1026800034E0A368E96800299A6E02F1010218BFDC
:102690008A422AD85B6B666813F0100F03F00C03B4
:1026A00096F800C05FEA1F96042B5FEA1F93BCF107
:1026B000030F56EA83830026C0F20336002B1CBFAB
:1026C0000026C0F202268A4240F20002C0F2022234
:1026D00084BF0026C0F20336002B56EA128200297E
:1026E00056EA12884FF0FF3100E00139A2685165C7
:1026F000A26891652A78042A03D3A268D165A268EA
:102700001166DBF83810A9BB9BF80010A9B12A7834
:102710009BF80110022A03D0032A03D1032205E00B
:10272000092203E00922002908BF06220B0143EA1F
:1027300081111144084340F480709BF80210C9B124
:102740002A789BF80310022A04D0032A05D14FF4FB
:10275000403208E04FF4102205E04FF41022002927
:1027600008BF4FF4C0220B0543EA815111440843CE
:1027700040F080706168C96991F83020D30705D0B6
:10278000A2688B6A013BD36491F83020920703D58D
:10279000A268C96A01391165297C0D2902D8A1688E
:1027A00000224A64A16800228A63A168C1F88820D7
:1027B000DBF8381039B99BF820109BF82120490329
:1027C00041EA427108439BF83010A26800294FF497
:1027D000A00108BF4FF4AA0111642978012904D18E
:1027E000A1680022CA64A1680A65A16822464863FC
:1027F00048F00301A068016348F00101A06801638B
:10280000D4E90201C16095F91200697C00F071F809
:102810009BF924009BF82210224600F06AF89BF9ED
:1028200025009BF82310224600F063F845F254017E
:102830000020C0F24701216001B0BDE8000FF0BDEB
:10284000D0E9021200204A607047B0B502AF436879
:102850004EF2801E42F2546CCEF2000E93F912102A
:10286000DB69C2F2002C002910D4C9B20125C1F3E2
:10287000421201F01F0405FA04F44EF8224000222F
:10288000BFF34F8FBFF36F8F4CF8212093F92410C3
:10289000002910D4C9B20125C1F3421201F01F046E
:1028A00005FA04F44EF822400022BFF34F8FBFF325
:1028B0006F8F4CF8212093F92510002910D4C9B24C
:1028C0000124C1F3421201F01F0304FA03F34EF88E
:1028D00022300022BFF34F8FBFF36F8F4CF82120BF
:1028E000D0E90212002303608A60816800204B63F4
:1028F000B0BD002848BF704780B56F464EF2001C3F
:10290000C3B2CEF2000C090143EA0C0E8EF800139C
:1029100042F25461C2F2002141F823204CF200310E
:10292000C4F2000151F8232022F4803241F8232020
:1029300051F823101C21012301EAD00100F01F00EF
:1029400041EA0C0203FA00F0BFF35F8FC2F8800186
:1029500041F80C0080BDF0B503AF2DE9000B42F249
:10296000F85240F20006C2F200220D468046C2F242
:10297000002613782BBB43F200004FF00109C4F28C
:10298000200082F80090EFF3108489F3108801682A
:1029900021F48001016000689620012100F0EFFC25
:1029A000002084F31088C6E90000B061C6E9020087
:1029B000C6E904004AF61040C4F20000466000F880
:1029C000049C6868007841B2002906D456F82000BB
:1029D00038B10820BDE8000BF0BD0B20BDE8000BAE
:1029E000F0BD286888F80410F0B100F10E0104E091
:1029F00012F4400F01F110010AD051F80E2CB2F17F
:102A0000804FF5D30B88DDB245EA03230B80EFE757
:102A10004AF610410822C4F200010A7098F9042015
:102A200046F822001820087044F20030C4F25440E6
:102A3000C8F800000020BDE8000BF0BDB0B502AF43
:102A400090F904204CF2003CC4F2000C4AF6104EFF
:102A5000C4F2000E5CF8223023F080734CF8223070
:102A600090F9042042F400423EF8023C9A42FBD026
:102A700001F10E0204E013F4400F02F110020AD03B
:102A800052F80E3CB3F1804FF5D31488E5B245EA15
:102A900004241480EFE708228EF8002090F9042027
:102AA00040F20003C2F2002343F8221018218EF8EE
:102AB000001090F9041000205CF8212042F0807290
:102AC0004CF82120B0BDD0B502AF82B00191009288
:102AD00090F904104CF2003C40F20002C4F2000CE9
:102AE000C2F2002252F821E05CF8212022F080722C
:102AF0004CF8212090F904204AF61041C4F200015C
:102B000042F4004231F8024CA242FBD008220A7083
:102B1000019A002A1CBF019ACEF80420009A002ACC
:102B20001CBF009ACEF80820DEF8002002F04044D6
:102B3000B4F1004F02D1AEF80C3005E00024B4EB44
:102B4000927F08BFAEF80E3018220A7090F9041078
:102B500000205CF8212042F080724CF8212002B065
:102B6000D0BD90F904104CF20032C4F200020020F3
:102B700052F8213043F0807342F82130704790F9C9
:102B800004104CF20032C4F20002002052F821304E
:102B900023F0807342F821307047062070470620EA
:102BA000704790F9040040F20002C2F2002252F88D
:102BB00020000022C1E900220268B2F1804F06D253
:102BC0004FF480328A60C089C860002070474FF49B
:102BD00080728A60C289D2B2CA60026802F0404242
:102BE000B2F1004FF1D14FF480320A608089486021
:102BF00000207047014690F904204CF2003040F26A
:102C0000000CC4F20000C2F2002C50F8223023F075
:102C1000807340F82230002000234CF822300B60F3
:102C200070470620704706207047D4D44EF2240126
:102C3000C4F201018878098801F00F02A2F10801AD
:102C400003293BD8DFE801F0022C101E40F260415E
:102C5000C2F2002151F820004AF6AB21CAF6AA219F
:102C6000A0FB0101480830E040F26041C2F20021BF
:102C700051F820004AF6AB21CAF6AA21A0FB0101B7
:102C8000C80822E040F26041C2F2002151F8200061
:102C90004AF6AB21CAF6AA21A0FB0101080914E0FB
:102CA00040F26041C2F2002151F820004AF6AB2107
:102CB000CAF6AA21A0FB0101880806E040F26041A3
:102CC000C2F2002151F82000D04042F27861C2F2F5
:102CD000002108607047D4D4D4D4D4D4D4D4D4D46C
:102CE000F0B503AF2DE9000F81B00FF2E4504EF2C2
:102CF000FA3840F2604BC4F2010890ED001FC2F2B6
:102D0000002B0FF2DC504AF203514EF25505CFF67C
:102D1000FF71A8F800108BED001F0BF12003C4F227
:102D2000010590ED001F48F2004040F60001C1F29D
:102D3000D77043F600028BED041FC2F6AF71C1F6E7
:102D40009C4207C315F82F0C35F8311C01F00F0217
:102D5000A2F1080103292BD8DFE801F002200C16AC
:102D60004AF6AB215BF82000CAF6AA21A0FB0101BC
:102D7000480820E04AF6AB215BF82000CAF6AA21F9
:102D8000A0FB0101C80816E04AF6AB215BF8200061
:102D9000CAF6AA21A0FB010108090CE04AF6AB2102
:102DA0005BF82000CAF6AA21A0FB0101880802E016
:102DB0005BF82000D04042F2786A4EF60046C2F23C
:102DC000002AC4F201060A214EF60144CAF80000A6
:102DD0004FF65060CFF6FF704AF20359C4F2010477
:102DE0003154092085F84D00307818B920788007D3
:102DF00000F06282307840B901203070C820012193
:102E000000F0BDFA30780128FCD10020207030702D
:102E1000002005F81F0C05F8230C15F8190C000705
:102E2000FBD542F60230C0F20100C5F8730040F253
:102E3000234025F8070C002005F80B0C4FF6021074
:102E4000C5F8570040F2514025F8090C15F8410C1F
:102E500000F0F800013005F8410C15F8410CC006EF
:102E6000FBD4002005F82B0C15F8190C8006FBD5B7
:102E70004CF200060020C4F213063070307830782F
:102E800030787068FA2806D0FA20C1F600607060C9
:102E90007168FA29FBD1B0687D2806D07D20CEF27A
:102EA0000010B060B1687D29FBD143F23240C3F21B
:102EB000232045F8350C42F2201025F8310C05206E
:102EC00005F82F0C15F82F0C35F8311C01F00F0206
:102ED000A2F1080103292BD8DFE801F002200C162B
:102EE0004AF6AB215BF82000CAF6AA21A0FB01013B
:102EF000480820E04AF6AB215BF82000CAF6AA2178
:102F0000A0FB0101C80816E04AF6AB215BF82000DF
:102F1000CAF6AA21A0FB010108090CE04AF6AB2180
:102F20005BF82000CAF6AA21A0FB0101880802E094
:102F30005BF82000D040CAF800009620012101244F
:102F400000F01DFA70686FF39F20652828BF347069
:102F500015F82F0C35F8311C01F00F02A2F1080111
:102F600003292BD8DFE801F002200C164AF6AB212A
:102F70005BF82000CAF6AA21A0FB0101480820E066
:102F80004AF6AB215BF82000CAF6AA21A0FB01019A
:102F9000C80816E04AF6AB215BF82000CAF6AA2161
:102FA000A0FB010108090CE04AF6AB215BF8200008
:102FB000CAF6AA21A0FB0101880802E05BF8200004
:102FC000D040CAF8000042F20000C4F20000A9F1AB
:102FD000020101800121BFF35F8F01724FF425418F
:102FE000BFF35F8F018095F8850040F0400085F8C1
:102FF000850095F98500B0F1FF3FFADC032085F8E4
:103000007F00C92085F8850095F8850000F0BF0095
:1030100085F8850095F985000028FBD4012005F886
:10302000250C05F8030C05F8020C002005F8170C18
:10303000802005F8170CE87F40F04000E87795F90C
:103040001F00B0F1FF3FFADC0720E8754A20E8775F
:103050000A20E87795F91F000028FBD4B8F8000093
:10306000A8F8009095F8201041F0400185F8201054
:1030700095F92010B1F1FF3FFADC002129764721B4
:1030800085F82010072185F8201095F920100029D7
:10309000FBD4A8F8000095F8210040F0400085F826
:1030A000210095F92100B0F1FF3FFADC032068769A
:1030B000CA2085F8210095F8210000F0BF0085F8AE
:1030C000210095F921000028FBD4287840F0400029
:1030D000287095F90000B0F1FF3FFADC022005F8F6
:1030E000010CCA202870287800F0BF00287095F9DC
:1030F00000000028FBD4A87840F04000A87095F9A3
:103100000200B0F1FF3FFADC00206870C720A87011
:10311000A87800F0BF00A87095F902000028FBD441
:10312000287A40F04000287295F90800B0F1FF3F7E
:10313000FADC0120E871C6202872287A00F0BF006E
:10314000287295F908000028FBD495F8230040F078
:10315000400085F8230095F92300B0F1FF3FFADC29
:103160000220E876C92085F8230095F8230000F0B6
:10317000BF0085F8230095F923000028FBD4A87A26
:1031800040F04000A87295F90A00B0F1FF3FFADC68
:1031900001206872CA20A872A87A00F0BF00A87245
:1031A00095F90A000028FBD495F8220040F0400071
:1031B00085F8220095F92200B0F1FF3FFADC0420E7
:1031C000A876CA2085F8220095F8220000F0BF00FA
:1031D00085F8220095F922000028FBD4A87940F058
:1031E0004000A87195F90600B0F1FF3FFADC02201B
:1031F0006871CA20A871A87900F0BF00A87195F97C
:1032000006000028FBD495F8860040F0400085F8C1
:10321000860095F98600B0F1FF3FFADC022085F8C0
:103220008000C52085F8860095F8860000F0BF0074
:1032300085F8860095F986000028FBD495F887006C
:1032400040F0400085F8870095F98700B0F1FF3F16
:10325000FADC012085F88100C52085F8870095F803
:10326000870000F0BF0085F8870095F987000028E7
:10327000FBD495F8890040F0400085F8890095F965
:103280008900B0F1FF3FFADC092085F88300C920EE
:1032900085F8890095F8890000F0BF0085F889005D
:1032A00095F989000028FBD44FF42540A8F80000C8
:1032B00001B0BDE8000FF0BD4FF47A7000F018F8CF
:1032C000A6E500BF00BF00BF00BF00BF00BF00BF3A
:1032D000006CDC0200127A000080000000366E01F3
:1032E0000080000000CA9A3B0046C3235543DE130A
:1032F0007047B0B502AF42F22404C820C4F22004E3
:1033000001210025257100F03AF82570207808B1D8
:103310002FF005C0207840F0020020702078800750
:10332000FCD4002004F8020C14F8020C08B12FF0B1
:1033300005C84FF0030E002004F11C0111F8102005
:1033400002F07F0201F8102011F91020002AFBD4AE
:1033500001300FF00DC8012000F0C0F84EF64C41CE
:103360000120C4F2010100220A70BDE8B04000F063
:103370008BB8014600204FF0C0620A60704742F2ED
:10338000786241F20023C2F20022C0F27A0348437D
:1033900012689A420FD344F23F21C0F20F01114448
:1033A0004DF68362C4F21B32A1FB0212910CA0FB0A
:1033B0000101C9B11DE04CF60021C3F69A31B1FB01
:1033C000F2F148F63812C0F24102904205D24FF4B1
:1033D0007A725043B0FBF1F006E0B0FBF1F090429E
:1033E00007D24FF47A714843002808BF704700F0B5
:1033F00007B84FF0FF3000F003B8D4D4D4D4D4D4FD
:1034000001380028FCD17047F0B503AF4DF8048DAA
:103410004CF2201842F2FC54C4F200080026C2F21A
:10342000002458F8200CD8F8001001EA000503E049
:1034300001360434152E09D025FA06F0C007F7D05E
:1034400021680029F4D0F0B28847F1E748F8105C11
:10345000D8F800002842FBD15DF8048BF0BD80B5A0
:103460006F464FF0070E4CF2003045F2A801C4F24F
:103470000000C0F2002131F8022B002A18BF0260C0
:1034800004300FF009C080BD0122EFF3108182F3F8
:10349000108842F27062C2F2002232F8103023B17A
:1034A00032F81030013B22F8103032F8102012B1FF
:1034B00081F3108870474EF2FA3244F6724CC4F22F
:1034C0000102C0F2002C13883CF8100043F425439D
:1034D00023EA0000108081F310887047D0B502AF56
:1034E0000122EFF3108182F3108842F27062C2F27F
:1034F000002232F8103083B94EF2FA3E44F6724C94
:10350000C4F2010EC0F2002CBEF800403CF81030AE
:10351000234343F42543AEF8003032F81030013332
:1035200022F8103081F31088D0BD80B56F4600F0CE
:1035300007F8FDF7BEFEFEE700BE7047D4D4D4D432
:10354000F0B503AF2DE900074EF6085840F2012010
:10355000CEF20008C0F20E004EF20004C8F80C00D3
:10356000CEF20104BFF34F8FBFF36F8F58F8080CF2
:10357000C0F3035110F00F0F5FEA0F9001295FEACB
:103580001081206810D879B940F0040020604EF214
:103590000800BFF34F8FCEF20000BFF36F8F0168BA
:1035A00041F48031016002E020F004002060BFF3AC
:1035B0004F8FBFF36F8F4FF4700040F20001C8F8D7
:1035C00080000020C0F20021C8F80010FDF7D0FBF9
:1035D000FFF786FB0120FDF7CBFB40F26000C2F253
:1035E000002080F30A882068800725D5D8F80000DD
:1035F000B0F1007F20D120694FF40071C0F3C30007
:10360000626901FA00F3C2F3C30081400020DA08C6
:103610000646CB08014642F007C800BF00BF00BF06
:10362000E6E802010FF005C04FF0005243F005C07C
:10363000E2E802010FF005C045F20819C0F20029C6
:10364000D9F800508DB1D9F804002E46041D03E0CE
:10365000013E04F10C0408D060790028F8D154E947
:103660000101091A00F03EFEF2E7D9F808A0BAF10C
:10367000000F13D0D9F80C00564600F1080403E0FF
:10368000013E04F1100409D060790028F8D154E912
:1036900002022168121A00F029FEF1E7FFF7C6FACC
:1036A000FFF727FE0320FFF719FF4FF00E0E40F63D
:1036B0003050C4F24000002120F8041B0FF005C078
:1036C0004EF210140320C4F20104FFF7DDFE0320C4
:1036D000FFF704FF44F204000021C4F2200001605F
:1036E00041608160C1600320FFF7CEFED4F8C802BC
:1036F00010B1D4F8C80211E0207878B10120FFF7AA
:10370000EDFE207800F0C0008028FAD10020207063
:1037100020783F28FCD80120FFF7B6FE0120FFF7F4
:10372000DDFE207900F0C0008028FAD10020207151
:1037300020793F28FCD80120FFF7A6FE0220FDF7E4
:1037400017FB9DB1D9F804004FF48076041D03E007
:10375000013D04F10C0409D06079B6EB002FF7D1DC
:1037600054E90101091A00F0BDFDF1E7BAF1000FBB
:1037700016D0D9F80C004FF4807500F1080404E06D
:10378000BAF1010A04F110040AD06079B5EB002FF8
:10379000F6D154E902022168121A00F0A7FDEFE702
:1037A00042F28464C2F20024204600F03DF8204634
:1037B00000F050F8BFF34F8F002045F26271BFF365
:1037C0006F8FC8F8480245F26270C0F20020C0F264
:1037D0000021BFF34F8F081ABFF36F8F8410012CA5
:1037E00008DB45F26275C0F2002555F8040B8047EE
:1037F000013CFAD1FFF733FE0020BDE80007BDE829
:10380000F04000F000B87047D0B502AF3AB10B7885
:1038100004789C4205D1013A01310130F6E70020DD
:10382000D0BDE01AD0BDD4D4D0B502AF054904460E
:10383000054A00F05BFD05480549204400F052FDB3
:10384000D0BD00BFB000000200000000000000007A
:10385000000000000249401A02490860704700BF9A
:10386000080000008026002210EE100A164920F001
:103870000040884204D8DFED150A002000F028B887
:10388000B0F1FF4F28BF00F0EDBCE0B502AF6846D5
:1038900000F062F800F003009DEC020A022809D053
:1038A000012804D050B9012000F012F88CBD00F0BE
:1038B00005FC8CBD012000F00BF801E000F0FEFBE0
:1038C000B1EE400A8CBD00BFD80F493F0000000098
:1038D00010EE101AC1F34561182998BF00F04EBCD4
:1038E00020EE001A9FED152A9FED153A9FED164A1E
:1038F000A1EE023A9FED132AA1EE032A9FED133A9F
:10390000A1EE024A21EE002AA1EE043A70B1B6EE11
:10391000004A22EE433AA0EE843AD1EE030A9FED2C
:103920000C1AE2EE010A30EE600A70479FED094A78
:10393000A1EE034AA2EE040A704700BFD3C92E2F9E
:10394000342FD7B21BEF3836010D50B98988083CA7
:10395000ABAA2A3EABAA2ABEB0B502AF86B010EE23
:10396000105A04467C4825F00041814204D80020CA
:1039700084ED000A6060AAE07848814218D87E4849
:10398000F0302840012DC0F287809FED791A8149DF
:1039900030EE010A884211BF9FED7F1A9FED7F1A1A
:1039A00030EE010A9FED7E1A30EE012A012086E0FA
:1039B0006B48814252D8B6EE002A9FED6C1AB0EEE9
:1039C000C00AA0EE012ABDEEC21A11EE100AB8EE2E
:1039D000C13A9FED671AA3EE010A9FED661A23EE26
:1039E000011A1F2808DC654B634A03EB80032A4059
:1039F00053F8043C9A422CD130EE412A00F0D2F820
:103A0000C2EBD152092AC0F293809FED5D1AC90D15
:103A100023EE011A30EE414A30EE440A30EE411AEC
:103A20009FED580A93EE001A34EE412A00F0BAF8DE
:103A3000891A1A297ADB9FED540A23EE001A34EE14
:103A4000410A34EE402A32EE411A9FED502A93EE9D
:103A5000021A30EE412A84ED002A69E0B1F1FF4FED
:103A600037D26FF0850000EBD1529FED3E1AA1EBEB
:103A7000C25003A900EE100A002008282FD0BDEE86
:103A8000C02A0B180430B8EEC22A30EE420A83ED89
:103A9000002A20EE010AF0E79FED3D1A3D4930EE85
:103AA000010A884211BF9FED331A9FED351A30EE9F
:103AB000010A9FED341A30EE012A4FF0FF3030EE4C
:103AC000420A84ED002A30EE010A84ED010A06B0B4
:103AD000B0BD30EE400A002084ED000AF5E701F1A8
:103AE000080004238DED050A90ED000A011F013B3B
:103AF000B5EE400A0846F1EE10FAF5D01A48022158
:103B0000CDE9001003A8214600F054F8B5F1FF3FBD
:103B1000DDDC94ED000A94ED011AB1EE400AB1EE3D
:103B2000411A84ED000A84ED011A12E0B0EE440A55
:103B300030EE420AB5F1FF3F30EE410A84ED010A52
:103B4000C5DCB1EE400AB1EE421A84ED010A84ED03
:103B5000001A4042BBE700BFD80F493FE3CB1640F5
:103B6000800F494300008043B453000284F9223F90
:103B7000800FC9BF4344353700FFFF7F3453000235
:103B80000044353708A3852E00A3852E32318D24BD
:103B9000800FC93FD00FC93F434435B7004435B704
:103BA00008A385AE12EE102A84ED002AC2F3C75294
:103BB0007047D4D4F0B503AF2DE9800F2DED108BF5
:103BC000D8B001918046B9680824DFF8B0041D46DA
:103BD000D7F80CC09FEDE30A50F821B0D11E91FB3D
:103BE000F4F1581E21EAE17A00210BEB0003AAEB65
:103BF00000044FEA8A004FEACA0EA0EB8500604439
:103C000000F1040930A899420DDC6618B0EE401AA4
:103C10005EBF09EB810696ED001AB8EEC11AA0EC62
:103C2000011A0131EFE730A8083A00EB85000023C4
:103C3000061F9FEDCC0A5B4517DCB0EE401A002052
:103C400041463446A84208DAB1EC013A013094ED1D
:103C5000002A043CA3EE021AF4E708A8043600EB9D
:103C60008300013380ED001AE5E7B4EE00CA44A8F2
:103C7000BAEE00DAA0F10409B7EE008A09EB8B0076
:103C8000B6EE00FAA2EB0E060CEB8A0A0490C6F11F
:103C900007000DF1200C9FEDB4AA5C469FEDB3BA6E
:103CA0009FEDB0EA0390C6F108000290ACF1040069
:103CB0000590069605980CEB8401224691ED000ACA
:103CC00000EB840044A9012A15DB20EE0A1A90EDCE
:103CD000002A0438013ABDEEC11AB8EEC11AA1EEAD
:103CE0000B0A32EE012ABDEEC00A10EE103A08C1EE
:103CF000B0EE420AE7E7304600F050FA20EE0C1A28
:103D00003146BBFE411AA1EE0D0A44A800EB840027
:103D10000129BDEEC01A11EE106AB8EEC11A30EEDC
:103D2000419A33DB50F8041C029B41FA03F216441B
:103D300002FA03F30796C91A039B40F8041C1941C1
:103D40000E460DF1200C0DF1C00E012E49DB0021B5
:103D50000022A24211DA44AB53F8223009B1FF210C
:103D600002E043B14FF48071C91A44AB43F822100A
:103D700001210132EDE70021FBE7069A012A1CDB55
:103D800015D0069A022A18D13F2211E0079651B1A8
:103D9000B4EE4F9A0DF1200C0DF1C00EF1EE10FAB9
:103DA00061DA00261DE050F8041CCE11C9E77F221D
:103DB00050F8043C1A4040F8042C07980130079052
:103DC000022E0ED138EE499A51B1B0EE480A06984B
:103DD00000F0E4F939EE409A0DF1C00E0DF1200C1F
:103DE0000226B5EE409AF1EE10FA3ED100202146AF
:103DF000594504DD59F8212001391043F8E70499A9
:103E00000028204647D151F804290130002AFAD071
:103E100029190EEB8101621C844221DA63190AEB35
:103E20008204464694ED000A0EEB83030C46B8EE7E
:103E3000C00A83ED000AB0EE4E0A0023AB4208DA56
:103E4000B6EC012A013394ED001A043CA2EE010AFB
:103E5000F4E70CEB82030431144683ED000ADAE741
:103E60000446069E26E7022671E7B0EE490A069D43
:103E70000596684200F092F99FED821AB4EE410A6D
:103E8000F1EE10FA14DABDEEC00AD7F8089044AE8D
:103E900010EE100A21E0059644AED7F80890301FC6
:103EA000069D50F82410013C083D0029F9D016E089
:103EB00020EE0A1A44AE0835D7F80890BDEEC11AB4
:103EC00011EE100AB8EEC11AA1EE0B0ABDEEC00A3F
:103ED00010EE101A46F82410013446F82400B7EE0C
:103EE000000A284600F05AF908A8DDF81CA000EBEB
:103EF000840821464046B1F1FF3F0EDD06EB81020A
:103F0000013992ED001AB8EEC11A20EE011A20EE26
:103F10000A0A80ED001A0438EDE7DFF86CE10DF1D4
:103F2000700C9FED570A2346002B21D4B0EE401AA7
:103F3000E51AAB455BEAB586002041467246B042C1
:103F400007DCB1EC012A0130B2EC013AA3EE021A0F
:103F5000F5E70CEB8500A8F10408013B80ED001AA1
:103F6000E2E700BF000000000000803B000080C3CB
:103F7000A9F10100022811D3019BB9F1000F059EA0
:103F800055463AD0B9F1030F6ED10CEB84002246AE
:103F90000146002A3ADD00F079F8FAE7019A0CEBC5
:103FA0008400059B21469FED360A5546002906D41C
:103FB00090ED001A0438013930EE010AF6E7B1EE4F
:103FC000401A002B00FE011A0CF1040082ED001AC9
:103FD00001219DED1C1A31EE400AA14205DCB0EC36
:103FE000011A013130EE010AF7E7B1EE401A002B59
:103FF00000FE010A82ED010A36E00CEB84009FED21
:10400000200A002C09D400F052F8FAE701462246B3
:10401000012A0ADD00F03AF8FAE7B1EE401A002E64
:1040200000FE010A83ED000A1EE09FED150A022C36
:1040300002DB00F03CF8FAE79DED1C1A76B19DED2D
:104040001D2AB1EE411AB1EE400AB1EE422A83EDCB
:10405000001A83ED020A83ED012A05E01D9883ED25
:10406000001A83ED020A586005F0070058B0BDEC55
:10407000108B01B0BDE8000FF0BD00BFCC560002B0
:104080000000000000008043D856000211ED010A34
:10409000013A91ED001A30EE012A30EE420A01EDAC
:1040A000012A31EE000A81ED000A0439704790EDD3
:1040B000001A0438013C30EE010A704710EE100A75
:1040C00020F00040B0F1485F3CBFB7EE000A7047F7
:1040D00020EE001A9FED212A9FED213A25498842C2
:1040E000A1EE023A9FED1F2AA1EE032A9FED1E3A90
:1040F000A1EE023A9FED1D2AA1EE032A9FED1C3A84
:10410000A1EE023A21EE032A0CD820EE600AA1EEBD
:10411000020AB6EE002A91EE020AB7EE001A31EE5C
:10412000400A704700F17F41B5EE024AB6EE005AF0
:1041300003EE101A104920EE600A884288BFB0EEE4
:10414000443AB7EE004AA1EE020A34EE434A91EE39
:10415000053A30EE430A34EE000A70474ED747ADB9
:10416000F6740F317CF293B4010DD037610BB6BAFF
:10417000ABAA2A3D9999993E0000483F81B0B7EE1D
:10418000002A054890ED001A31EE021A8DED001A52
:104190009DED001A01B070470457000210EE101A8E
:1041A00021F00043DA0D05D0FF2A04BF30EE000AEB
:1041B00070470CE073B39FED181A184A20EE010AFD
:1041C000904210EE101A17DDC1F3C752193A4CF2A3
:1041D00051339842B9BF1044FF28C80F00F032B8DD
:1041E0000128A1BF21F0FF4141EAC05000EE100AB2
:1041F000704710F1190F02DCC80F00F013B8193026
:1042000021F0FF419FED061A41EAC05000EE100A6E
:1042100020EE010A704700BF0000004CAF3CFFFFDA
:10422000000000330649002891ED000AB1EE401A63
:1042300000FE010A91ED001A20EE010A704700BF4E
:10424000085700020649002891ED000AB1EE401A15
:1042500000FE010A91ED001A20EE010A704700BF2E
:104260000C57000280B56F462DED028BB0EE408AF0
:1042700000F010F838B1064890ED000A90ED001AF1
:1042800080EE010A01E038EE080ABDEC028B80BD29
:104290001057000210EE100A40F00041B1F1004F3B
:1042A00004BF02207047A0F50001B1F1FE4F24BF0A
:1042B00000F1FF41B1F1FE4F01D204207047B0F58B
:1042C000000F05D36FF00041054B42189A4201D20E
:1042D0000320704700F5000008425FEA1F90704716
:1042E000FFFF7F000A46002100F00AB8D0B502AFF8
:1042F00000239A4203D0CC5CC4540133F9E7D0BD0B
:1043000000239A4208BF7047C1540133F9E7000007
:104310000000000054545220524547474553000DB9
:104320000A475054207374617274206661696C6529
:10433000642C20436C6F73696E672053534920616E
:104340006E64204750540D0A000D0A5472616E735A
:104350006D697474656420616E642072656365695B
:104360007665642073616D706C6520617564696F3A
:10437000206461746120636F6D70617269736F6E28
:10438000206661696C6564004441373231322069CE
:104390006E6974206572726F723A20424941535FB0
:1043A000454E207772697465206661696C6564208A
:1043B00028307825303258290D0A004441373231EF
:1043C0003220696E6974206572726F723A20535997
:1043D0005354454D5F4143544956452077726974A3
:1043E00065206661696C6564202830782530325814
:1043F000290D0A0044413732313220696E69742038
:104400006572726F723A20493243206F70656E2078
:104410006661696C65642028307825303258290D32
:104420000A00284E554C4C29004441373231322085
:10443000696E6974206572726F723A206D69786571
:1044400072207265672030782530325820666169A5
:104450006C65642028307825303258290D0A0054C4
:10446000696D65722057696C6C2062656520737494
:104470006172746564210D0A000D0A5772697465D2
:1044800052656164206F7065726174696F6E206E31
:104490006F7420636F6D706C657465206475652042
:1044A000746F2074696D656F7574004441373231E3
:1044B0003220696E6974206661696C65640D0A005A
:1044C000312E32000D0A0044413732313220696EFC
:1044D0006974206572726F723A2073616D706C65D9
:1044E0002072617465207772697465206661696CF9
:1044F00065642028307825303258290D0A000D0ACD
:1045000052657475726E6564204572726F722043D5
:104510006F64653A203078257820200D0A004441E8
:104520003732313220696E6974206572726F723A67
:1045300020504C4C2072656720307825303258204E
:104540007772697465206661696C656420283078CB
:1045500025303258290D0A005B4552525D20496EC4
:104560002046756E6374696F6E3A20257328292C76
:104570002025730044413732313220696E6974203E
:104580006572726F723A2044414920636C6F636BAD
:10459000206D6F6465206661696C656420283078E1
:1045A00025303258290D0A006461373231325F7389
:1045B0007065616B65725F696E69740054696D65E1
:1045C00072205375636365737366756C6C79206FC5
:1045D00070656E6564210D0A004441373231322026
:1045E000696E6974206572726F723A20444143208B
:1045F000726F7574696E67206661696C65642028E6
:10460000307825303258290D0A000A000D0A546806
:104610006973206578616D706C652070726F6A6572
:1046200063742064656D6F6E73747261746573205A
:10463000617564696F2073747265616D696E67205E
:104640007573696E672074686520535349206D6FD8
:1046500064756C650D0A77697468206120646F75F4
:10466000626C652D627566666572206D6563686152
:104670006E69736D2E20412073696E6520776176B7
:10468000652069732067656E657261746564206179
:104690006E6420636F6E74696E756F75736C790DDF
:1046A0000A73747265616D656420766961206120AA
:1046B0006C6F6F706261636B20636F6E6E656374A5
:1046C000696F6E206265747765656E207468652019
:1046D000535349545820616E642053534952582013
:1046E00070696E732E0D0A5468652073696E6520BB
:1046F0007761766520646174612069732073746FDB
:1047000072656420696E2074776F206275666665D5
:1047100072732C20616C7465726E6174696E6720AF
:104720006265747765656E207468656D0D0A746FD7
:1047300020656E7375726520636F6E74696E756F38
:10474000757320616E6420756E696E746572727522
:10475000707465642073747265616D696E672E2074
:10476000546865207472616E736D69747465642039
:10477000616E640D0A7265636569766564206175B2
:1047800064696F20646174612061726520636F6D7C
:10479000706172656420746F207665726966792035
:1047A000746865207375636365737366756C2063E5
:1047B0006F6D706C6574696F6E206F660D0A74683A
:1047C0006520535349207472616E736665722E20A2
:1047D00054686520726573756C74732077696C6CAE
:1047E00020626520646973706C61796564206F6E06
:1047F0002074686520525454205669657765722E7E
:104800000D0A5468652073616D706C652064617475
:10481000612063616E206265206F627365727665E8
:1048200064207573696E672077617665666F726D57
:104830002072656E646572696E6720696E207468A7
:1048400065206D656D6F72790D0A766965776572A1
:10485000206F6620653273747564696F2E0D0A00CF
:104860004C63683D256420205263683D25640D0A31
:10487000000D0A525F4750545F436C6F73652041CF
:104880005049204661696C65640D0A005465726D7B
:10489000696E616C005375636365737366756C79DB
:1048A000206F70656E6564210D0A000D0A47505433
:1048B000206F70656E206661696C65642C20436CA6
:1048C0006F73696E67205353490D0A006465696E02
:1048D00069745F6770740044413732313220696E09
:1048E0006974206572726F723A2073797374656DA2
:1048F000206374726C206661696C6564202830786E
:1049000025303258290D0A0068616C5F656E74723B
:10491000790044413732313220696E697420657202
:10492000726F723A20616D70206761696E206661F6
:10493000696C65642028307825303258290D0A00CA
:104940000D0A2A2A2A2A2A2A2A2A2A2A2A2A2A2A04
:104950002A2A2A2A2A2A2A2A2A2A2A2A2A2A2A2AB7
:104960002A2A2A2A2A2A2A2A2A2A2A2A2A2A2A2AA7
:104970002A2A2A2A2A2A2A2A2A2A2A2A2A2A2A2A97
:104980002A2A2A2A0D0A2A20202052656E65736180
:104990007320465350204578616D706C65205072CD
:1049A0006F6A65637420666F7220725F737369202B
:1049B0004D6F64756C652020202020202020202051
:1049C000202020202020202A0D0A2A20202045787F
:1049D000616D706C652050726F6A656374205665F6
:1049E0007273696F6E2025732020202020202020E4
:1049F00020202020202020202020202020202020B7
:104A0000202020202020202020202A0D0A2A2020BB
:104A100020466C657820536F66747761726520500C
:104A200061636B2056657273696F6E202025642E5A
:104A300025642E25642020202020202020202020D6
:104A40002020202020202020202020202020202066
:104A5000202A0D0A2A2A2A2A2A2A2A2A2A2A2A2AFD
:104A60002A2A2A2A2A2A2A2A2A2A2A2A2A2A2A2AA6
:104A70002A2A2A2A2A2A2A2A2A2A2A2A2A2A2A2A96
:104A80002A2A2A2A2A2A2A2A2A2A2A2A2A2A2A2A86
:104A90002A2A2A2A2A2A0D0A526566657220746F0C
:104AA00020726561646D652E7478742066696C652A
:104AB00020666F72206D6F72652064657461696C29
:104AC00073206F6E204578616D706C652050726F39
:104AD0006A65637420616E640D0A465350205573F5
:104AE00065722773204D616E75616C20666F722050
:104AF0006D6F726520696E666F726D6174696F6E3D
:104B00002061626F757420725F73736920647269CB
:104B10007665720D0A0044413732313220696E6980
:104B200074206572726F723A20616D7020656E61DB
:104B3000626C65206661696C656420283078253078
:104B40003258290D0A0044413732313220696E69EA
:104B500074206572726F723A2044414920636F6E0F
:104B600074726F6C206661696C65642028307825EA
:104B7000303258290D0A0044413732313220696EF3
:104B80006974206572726F723A206368617267653A
:104B90002070756D70206661696C656420283078BE
:104BA00025303258290D0A006465696E69745F7397
:104BB0007369000D0A525F5353495F436C6F73650D
:104BC00020415049204661696C65640D0A00737389
:104BD000695F656E747279000D0A525F5353495FC5
:104BE000577269746552656164204150492066615D
:104BF000696C65642C20436C6F73696E6720535336
:104C00004920616E64204750540D0A000D0A547209
:104C1000616E736D697474656420616E6420726581
:104C20006365697665642073616D706C652061757C
:104C300064696F206461746120636F6D7061726973
:104C4000736F6E207375636365737366756C007341
:104C500073695F6578616D706C655F7772697465A3
:104C600000303132333435363738394142434445E8
:104C700046D401000200080010002784240025000B
:104C800026204B084C080101041011000000D4D468
:104C900001000000A08601001A00000001020304C8
:104CA000050600000000000000000000FB0C0002F0
:104CB00000000000864C000201000000000000001F
:104CC00000000000000000000000000000000000E4
:104CD00000000000000000000000FFFFDFDF000018
:104CE00000000000000000000000000000000000C4
:104CF0000000000000000000B10000000000000003
:104D00005800000002FFDF0000000000000000006B
:104D1000B84C000201D4D4D430000022144D00025B
:104D2000BC250022184D0002BC50000200D4D4D48F
:104D3000400000222C4D0002C4250022304D00020C
:104D4000BC5000020101D4D40000000001010101A7
:104D5000384D0002204D00029511000200000000B5
:104D6000444D000202020200010200000040000067
:104D700000000000004000000600000000400000AD
:104D80000800000000400000090000000040000092
:104D90000C000000450000000D000000000C011C8C
:104DA00000010000000C011C01010000000C011CAE
:104DB00002010000000C011C03010000000C011C9A
:104DC00004010000000C011C05010000000C011C86
:104DD000060100000040000007010000450400003B
:104DE00009010000104000000B010000004000001D
:104DF00000020000000C011806020000000C01195E
:104E000007020000000C010008020000000C010075
:104E100009020000000C01000A020000000C010061
:104E20000B020000040C000003030000000C01183A
:104E300004030000000C011805030000000C011819
:104E400006030000000C011807030000000C011805
:104E500009030000000C01180A030000400C0107C0
:104E600000040000400C01070104000000000112D2
:104E700003040000000001120404000000000112FD
:104E800005040000000001120604000000040113E4
:104E900007040000000401140804000000040107D6
:104EA00009040000000401070A0400000004011FB7
:104EB0000B040000000401180E0400000004011897
:104EC0000F0400000000011300050000000C0103A6
:104ED000010500000004011B020500004004010759
:104EE0000B050000400401070C050000000C01192F
:104EF0000D050000040400000E050000000C01195F
:104F00000F050000040C000000060000040400006F
:104F100006060000000C0119070700000404000049
:104F2000080700000404000009070000000C011934
:104F30000A070000000C01190B070000000C011902
:104F40000C070000000C01190D070000000C0119EE
:104F50000E070000000C01190F070000000C011CD7
:104F600000080000000C011C01080000000C011CDE
:104F700002080000000C011C03080000000C011CCA
:104F800004080000000C011905080000000C0119BC
:104F900006080000000C011907080000000C011CA5
:104FA000080800000004011B0C080000000C01139D
:104FB0000E080000000C01130F080000000C01197E
:104FC00002090000000C011903090000000C01197E
:104FD00004090000000C011805090000000C01186C
:104FE00006090000000C011807090000000C011858
:104FF00008090000000C011809090000000C011943
:105000000A090000000C01190B090000000C01192D
:105010000C090000000C01190D090000000C011919
:105020000E090000000C01190F090000040C00001B
:10503000070A0000000C0119000B0000000C011908
:10504000010B0000000C0119020B0000000C0119FB
:10505000030B0000000C0119040B0000000C0119E7
:10506000050B0000000C0119060B0000000C0119D3
:10507000070B0000000C0104020D0000000C0104ED
:10508000030D000000000103050D000000000103F6
:10509000060D000000040114070D0000660000006A
:1050A0006C4D000200000000B300B400B600A10087
:1050B000A200A300A4000204030404045729000270
:1050C0003D2A0002C72A0002632B00027F2B000248
:1050D0009B2B00029F2B0002A32B0002F52B00024A
:1050E000232C0002272C000200000068000000684A
:1050F00000000080000000800000007000000070D0
:1051000060000022600000220B000000205100021D
:1051100019000000A451000204000000E850000241
:1051200000000068000000680001000D0000006839
:10513000000000680001000D0000008000000080F9
:10514000000100080000008000000080000100084D
:1051500000000070000000700001000A00000070F4
:10516000000000700001000A0000000000000000C4
:1051700001000005000000200000002001000004E4
:105180006000002260000022000000039004002262
:1051900084260022000000038426002284260022A8
:1051A000000000030000006800000068000000909C
:1051B0000001090D00000068000000680000007890
:1051C00000010B0D000000680000006800000027CF
:1051D0000001020D00000068000000687400000279
:1051E0000001010D00000080000000800000009020
:1051F0000001090800000080000000800000007825
:1052000000010B0800000080000000800000002763
:10521000000102080000008000000080740000020D
:105220000001010800000070000000700000009004
:105230000001090A00000070000000700000007802
:1052400000010B0A00000070000000700000002741
:105250000001020A000000700000007074000002EB
:105260000001010A000000000000000000000090A2
:1052700001010905000000000000000000000078A6
:1052800001010B05000000000000000000000027E5
:105290000100020500000000000000007400000290
:1052A0000100010500000020000000200000009027
:1052B0000101090400000020000000200000007827
:1052C00001010B0400000020000000200000002766
:1052D0000100020400000020000000207400000211
:1052E000010001041C0000221C00002200000090AC
:1052F000000109031C0000221C00002200000078AD
:1053000000010B031C0000221C00002200000027EB
:105310000000020320000022500000228000000252
:10532000000001038426002284260022B00000022F
:1053300000000103000FC93F000F494000CB964019
:10534000000FC9400053FB4000CB164100ED2F4138
:10535000000F49410031624100537B41003A8A41CC
:1053600000CB9641005CA34100EDAF41007EBC4103
:10537000000FC94100A0D5410031E24100C2EE4119
:105380000053FB4100F20342003A0A4200831042FC
:1053900000CB164200141D42005C234200A52942A6
:1053A00000ED2F4200363642007E3C4200C74242AA
:1053B000000F4942A2000000F90000008300000035
:1053C0006E0000004E0000004400000015000000C8
:1053D00029000000FC00000027000000570000002A
:1053E000D1000000F500000034000000DD000000E6
:1053F000C0000000DB00000062000000950000001B
:10540000990000003C0000004300000090000000F4
:1054100041000000FE000000510000006300000099
:10542000AB000000DE000000BB000000C500000073
:1054300061000000B7000000240000006E000000C2
:105440003A000000420000004D000000D2000000C1
:10545000E000000006000000490000002E000000EF
:10546000EA00000009000000D100000092000000E6
:105470001C000000FE0000001D000000EB0000000A
:105480001C000000B100000029000000A70000007F
:105490003E000000E800000082000000350000002F
:1054A000F50000002E000000BB00000044000000DA
:1054B00084000000E90000009C0000007000000073
:1054C00026000000B40000005F0000007E00000025
:1054D000410000003900000091000000D6000000EB
:1054E0003900000083000000530000003900000074
:1054F000F40000009C000000840000005F00000039
:105500008B000000BD000000F90000002800000032
:105510003B0000001F000000F800000097000000A2
:10552000FF000000DE000000050000009800000001
:105530000F000000EF0000002F000000110000002D
:105540008B0000005A0000000A0000006D000000FF
:105550001F0000006D000000360000007E0000000B
:10556000CF00000027000000CB0000000900000071
:10557000B70000004F000000460000003F000000A0
:10558000660000009E0000005F000000EA000000CE
:105590002D0000007500000027000000BA00000088
:1055A000C7000000EB000000E5000000F100000073
:1055B0007B0000003D0000000700000039000000F3
:1055C000F70000008A000000520000009200000076
:1055D000EA0000006B000000FB0000005F0000001C
:1055E000B10000001F0000008D0000005D00000001
:1055F000080000005600000003000000300000001A
:1056000046000000FC0000007B0000006B00000072
:10561000AB000000F0000000CF000000BC00000064
:10562000200000009A000000F40000003600000096
:105630001D000000A9000000E30000009100000030
:10564000610000005E000000E60000001B0000009A
:1056500008000000650000009900000085000000BF
:105660005F00000014000000A000000068000000BF
:10567000400000008D000000FF000000D800000086
:10568000800000004D0000007300000027000000B3
:1056900031000000060000000600000015000000B8
:1056A00056000000CA00000073000000A8000000BF
:1056B000C900000060000000E20000007B00000064
:1056C000C00000008C0000006B000000040000001F
:1056D00007000000090000000000C93F0000F03989
:1056E0000000DA370000A2330000842E0000502BA7
:1056F0000000C2270000D0220000C41F0000C61B0B
:10570000000044170000800000008000FFFF7F7F42
:105710000000000000000006362E302E30004275DA
:10572000696C7420776974682052656E6573617363
:1057300020416476616E63656420466C65786962B9
:105740006C6520536F667477617265205061636B7E
:105750006167652076657273696F6E20362E302E14
:02576000300017
:040000050200352B95
:00000001FF
